:020000020000FC
:1000000029C009C008C007C007C005C004C003C09C
:1000100002C001C000C018956193EF74FF27203023
:1000200019F010982A9501C0109AC0E4DD27AA277C
:10003000BB2744273991A30FB41FC035D9F7A69524
:10004000A695A695A695BB0FBB0FBB0FBB0FAB2B01
:100050007A2F189500E00EBF0FE50DBFE0E4FF27F3
:10006000222730E037BD33B931E031B937B33460DE
:1000700037BB32E03BBB33E83DBB30E03EBD31E057
:100080003BBD31E03DBD78945DB350645DBB5DB375
:1000900056FDFDCF69B30EE2070F08F40FEF172FDF
:1000A00088941E4208F410E0061720F0611710F043
:0800B00009F0EACF20E1E8CFDE
:00000001FF
